{
  "_format": "hh-sol-artifact-1",
  "contractName": "Todo",
  "sourceName": "contracts/Todo.sol",
  "abi": [
    {
      "anonymous": false,
      "inputs": [
        {
          "indexed": false,
          "internalType": "uint256",
          "name": "id",
          "type": "uint256"
        },
        {
          "indexed": false,
          "internalType": "bool",
          "name": "completed",
          "type": "bool"
        }
      ],
      "name": "TaskCompleted",
      "type": "event"
    },
    {
      "anonymous": false,
      "inputs": [
        {
          "indexed": false,
          "internalType": "uint256",
          "name": "id",
          "type": "uint256"
        },
        {
          "indexed": false,
          "internalType": "string",
          "name": "content",
          "type": "string"
        },
        {
          "indexed": false,
          "internalType": "bool",
          "name": "completed",
          "type": "bool"
        }
      ],
      "name": "TaskCreated",
      "type": "event"
    },
    {
      "inputs": [
        {
          "internalType": "string",
          "name": "_content",
          "type": "string"
        }
      ],
      "name": "createTask",
      "outputs": [],
      "stateMutability": "nonpayable",
      "type": "function"
    },
    {
      "inputs": [
        {
          "internalType": "uint256",
          "name": "_id",
          "type": "uint256"
        }
      ],
      "name": "getTask",
      "outputs": [
        {
          "components": [
            {
              "internalType": "uint256",
              "name": "id",
              "type": "uint256"
            },
            {
              "internalType": "string",
              "name": "content",
              "type": "string"
            },
            {
              "internalType": "bool",
              "name": "completed",
              "type": "bool"
            }
          ],
          "internalType": "struct Todo.Task",
          "name": "",
          "type": "tuple"
        }
      ],
      "stateMutability": "view",
      "type": "function"
    },
    {
      "inputs": [],
      "name": "taskCount",
      "outputs": [
        {
          "internalType": "uint256",
          "name": "",
          "type": "uint256"
        }
      ],
      "stateMutability": "view",
      "type": "function"
    },
    {
      "inputs": [
        {
          "internalType": "uint256",
          "name": "",
          "type": "uint256"
        }
      ],
      "name": "tasks",
      "outputs": [
        {
          "internalType": "uint256",
          "name": "id",
          "type": "uint256"
        },
        {
          "internalType": "string",
          "name": "content",
          "type": "string"
        },
        {
          "internalType": "bool",
          "name": "completed",
          "type": "bool"
        }
      ],
      "stateMutability": "view",
      "type": "function"
    },
    {
      "inputs": [
        {
          "internalType": "uint256",
          "name": "_id",
          "type": "uint256"
        }
      ],
      "name": "toggleTaskCompletion",
      "outputs": [],
      "stateMutability": "nonpayable",
      "type": "function"
    }
  ],
  "bytecode": "0x608060405234801561001057600080fd5b50610ab9806100206000396000f3fe608060405234801561001057600080fd5b50600436106100575760003560e01c8063111002aa1461005c5780631d65e77e146100785780638d977672146100a8578063a9bda587146100da578063b6cb58a5146100f6575b600080fd5b61007660048036038101906100719190610661565b610114565b005b610092600480360381019061008d91906106a2565b6101eb565b60405161009f91906107c9565b60405180910390f35b6100c260048036038101906100bd91906106a2565b6102ce565b6040516100d19392919061082f565b60405180910390f35b6100f460048036038101906100ef91906106a2565b61038d565b005b6100fe610518565b60405161010b91906107eb565b60405180910390f35b6001600081548092919061012790610985565b91905055506040518060600160405280600154815260200182815260200160001515815250600080600154815260200190815260200160002060008201518160000155602082015181600101908051906020019061018692919061051e565b5060408201518160020160006101000a81548160ff0219169083151502179055509050507f05d0fb833127fc08168556d0e7ca9554fc3f6bc843b3b7d2bf1c35aea6bab6606001548260006040516101e09392919061082f565b60405180910390a150565b6101f36105a4565b6000808381526020019081526020016000206040518060600160405290816000820154815260200160018201805461022a90610953565b80601f016020809104026020016040519081016040528092919081815260200182805461025690610953565b80156102a35780601f10610278576101008083540402835291602001916102a3565b820191906000526020600020905b81548152906001019060200180831161028657829003601f168201915b505050505081526020016002820160009054906101000a900460ff1615151515815250509050919050565b60006020528060005260406000206000915090508060000154908060010180546102f790610953565b80601f016020809104026020016040519081016040528092919081815260200182805461032390610953565b80156103705780601f1061034557610100808354040283529160200191610370565b820191906000526020600020905b81548152906001019060200180831161035357829003601f168201915b5050505050908060020160009054906101000a900460ff16905083565b6000806000838152602001908152602001600020604051806060016040529081600082015481526020016001820180546103c690610953565b80601f01602080910402602001604051908101604052809291908181526020018280546103f290610953565b801561043f5780601f106104145761010080835404028352916020019161043f565b820191906000526020600020905b81548152906001019060200180831161042257829003601f168201915b505050505081526020016002820160009054906101000a900460ff1615151515815250509050806040015115816040019015159081151581525050806000808481526020019081526020016000206000820151816000015560208201518160010190805190602001906104b392919061051e565b5060408201518160020160006101000a81548160ff0219169083151502179055509050507fe21fa966ca5cd02748c0752352d18c48165e61cb55b4c29cccf924b5a95fcff182826040015160405161050c929190610806565b60405180910390a15050565b60015481565b82805461052a90610953565b90600052602060002090601f01602090048101928261054c5760008555610593565b82601f1061056557805160ff1916838001178555610593565b82800160010185558215610593579182015b82811115610592578251825591602001919060010190610577565b5b5090506105a091906105c7565b5090565b604051806060016040528060008152602001606081526020016000151581525090565b5b808211156105e05760008160009055506001016105c8565b5090565b60006105f76105f28461089e565b61086d565b90508281526020810184848401111561060f57600080fd5b61061a848285610911565b509392505050565b600082601f83011261063357600080fd5b81356106438482602086016105e4565b91505092915050565b60008135905061065b81610a6c565b92915050565b60006020828403121561067357600080fd5b600082013567ffffffffffffffff81111561068d57600080fd5b61069984828501610622565b91505092915050565b6000602082840312156106b457600080fd5b60006106c28482850161064c565b91505092915050565b6106d4816108fb565b82525050565b6106e3816108fb565b82525050565b60006106f4826108ce565b6106fe81856108d9565b935061070e818560208601610920565b61071781610a5b565b840191505092915050565b600061072d826108ce565b61073781856108ea565b9350610747818560208601610920565b61075081610a5b565b840191505092915050565b600060608301600083015161077360008601826107ab565b506020830151848203602086015261078b82826106e9565b91505060408301516107a060408601826106cb565b508091505092915050565b6107b481610907565b82525050565b6107c381610907565b82525050565b600060208201905081810360008301526107e3818461075b565b905092915050565b600060208201905061080060008301846107ba565b92915050565b600060408201905061081b60008301856107ba565b61082860208301846106da565b9392505050565b600060608201905061084460008301866107ba565b81810360208301526108568185610722565b905061086560408301846106da565b949350505050565b6000604051905081810181811067ffffffffffffffff8211171561089457610893610a2c565b5b8060405250919050565b600067ffffffffffffffff8211156108b9576108b8610a2c565b5b601f19601f8301169050602081019050919050565b600081519050919050565b600082825260208201905092915050565b600082825260208201905092915050565b60008115159050919050565b6000819050919050565b82818337600083830152505050565b60005b8381101561093e578082015181840152602081019050610923565b8381111561094d576000848401525b50505050565b6000600282049050600182168061096b57607f821691505b6020821081141561097f5761097e6109fd565b5b50919050565b600061099082610907565b91507fffffffffffffffffffffffffffffffffffffffffffffffffffffffffffffffff8214156109c3576109c26109ce565b5b600182019050919050565b7f4e487b7100000000000000000000000000000000000000000000000000000000600052601160045260246000fd5b7f4e487b7100000000000000000000000000000000000000000000000000000000600052602260045260246000fd5b7f4e487b7100000000000000000000000000000000000000000000000000000000600052604160045260246000fd5b6000601f19601f8301169050919050565b610a7581610907565b8114610a8057600080fd5b5056fea26469706673582212202f044cb47af9b6691dfb081828a473f623cc439042a84965ba89ed83408f35ee64736f6c63430008000033",
  "linkReferences": {},
  "deployedLinkReferences": {}
}